{
  "contractName": "Hospital",
  "abi": [
    {
      "anonymous": false,
      "inputs": [
        {
          "indexed": false,
          "internalType": "uint256",
          "name": "id",
          "type": "uint256"
        },
        {
          "indexed": false,
          "internalType": "string",
          "name": "nama",
          "type": "string"
        },
        {
          "indexed": false,
          "internalType": "string",
          "name": "umur",
          "type": "string"
        },
        {
          "indexed": false,
          "internalType": "string",
          "name": "email",
          "type": "string"
        },
        {
          "indexed": false,
          "internalType": "string",
          "name": "nik",
          "type": "string"
        },
        {
          "indexed": false,
          "internalType": "string",
          "name": "alamat",
          "type": "string"
        },
        {
          "indexed": false,
          "internalType": "string",
          "name": "penyakit",
          "type": "string"
        },
        {
          "indexed": false,
          "internalType": "address",
          "name": "owner",
          "type": "address"
        }
      ],
      "name": "InsertData",
      "type": "event"
    },
    {
      "constant": true,
      "inputs": [
        {
          "internalType": "uint256",
          "name": "",
          "type": "uint256"
        }
      ],
      "name": "Datas",
      "outputs": [
        {
          "internalType": "uint256",
          "name": "id",
          "type": "uint256"
        },
        {
          "internalType": "string",
          "name": "nama",
          "type": "string"
        },
        {
          "internalType": "string",
          "name": "umur",
          "type": "string"
        },
        {
          "internalType": "string",
          "name": "email",
          "type": "string"
        },
        {
          "internalType": "string",
          "name": "nik",
          "type": "string"
        },
        {
          "internalType": "string",
          "name": "alamat",
          "type": "string"
        },
        {
          "internalType": "string",
          "name": "penyakit",
          "type": "string"
        },
        {
          "internalType": "address",
          "name": "owner",
          "type": "address"
        }
      ],
      "payable": false,
      "stateMutability": "view",
      "type": "function"
    },
    {
      "constant": true,
      "inputs": [],
      "name": "index",
      "outputs": [
        {
          "internalType": "uint256",
          "name": "",
          "type": "uint256"
        }
      ],
      "payable": false,
      "stateMutability": "view",
      "type": "function"
    },
    {
      "constant": false,
      "inputs": [
        {
          "internalType": "string",
          "name": "_nama",
          "type": "string"
        },
        {
          "internalType": "string",
          "name": "_umur",
          "type": "string"
        },
        {
          "internalType": "string",
          "name": "_email",
          "type": "string"
        },
        {
          "internalType": "string",
          "name": "_nik",
          "type": "string"
        },
        {
          "internalType": "string",
          "name": "_alamat",
          "type": "string"
        },
        {
          "internalType": "string",
          "name": "_penyakit",
          "type": "string"
        }
      ],
      "name": "addData",
      "outputs": [],
      "payable": false,
      "stateMutability": "nonpayable",
      "type": "function"
    }
  ],
  "bytecode": "0x60806040526000805534801561001457600080fd5b506110da806100246000396000f3fe608060405234801561001057600080fd5b50600436106100415760003560e01c80632986c0e51461004657806331c9170d1461006457806336fe769414610412575b600080fd5b61004e61070f565b6040518082815260200191505060405180910390f35b610410600480360360c081101561007a57600080fd5b810190808035906020019064010000000081111561009757600080fd5b8201836020820111156100a957600080fd5b803590602001918460018302840111640100000000831117156100cb57600080fd5b91908080601f016020809104026020016040519081016040528093929190818152602001838380828437600081840152601f19601f8201169050808301925050505050505091929192908035906020019064010000000081111561012e57600080fd5b82018360208201111561014057600080fd5b8035906020019184600183028401116401000000008311171561016257600080fd5b91908080601f016020809104026020016040519081016040528093929190818152602001838380828437600081840152601f19601f820116905080830192505050505050509192919290803590602001906401000000008111156101c557600080fd5b8201836020820111156101d757600080fd5b803590602001918460018302840111640100000000831117156101f957600080fd5b91908080601f016020809104026020016040519081016040528093929190818152602001838380828437600081840152601f19601f8201169050808301925050505050505091929192908035906020019064010000000081111561025c57600080fd5b82018360208201111561026e57600080fd5b8035906020019184600183028401116401000000008311171561029057600080fd5b91908080601f016020809104026020016040519081016040528093929190818152602001838380828437600081840152601f19601f820116905080830192505050505050509192919290803590602001906401000000008111156102f357600080fd5b82018360208201111561030557600080fd5b8035906020019184600183028401116401000000008311171561032757600080fd5b91908080601f016020809104026020016040519081016040528093929190818152602001838380828437600081840152601f19601f8201169050808301925050505050505091929192908035906020019064010000000081111561038a57600080fd5b82018360208201111561039c57600080fd5b803590602001918460018302840111640100000000831117156103be57600080fd5b91908080601f016020809104026020016040519081016040528093929190818152602001838380828437600081840152601f19601f820116905080830192505050505050509192919290505050610715565b005b61043e6004803603602081101561042857600080fd5b8101908080359060200190929190505050610c08565b604051808981526020018060200180602001806020018060200180602001806020018873ffffffffffffffffffffffffffffffffffffffff1673ffffffffffffffffffffffffffffffffffffffff16815260200187810387528e818151815260200191508051906020019080838360005b838110156104ca5780820151818401526020810190506104af565b50505050905090810190601f1680156104f75780820380516001836020036101000a031916815260200191505b5087810386528d818151815260200191508051906020019080838360005b83811015610530578082015181840152602081019050610515565b50505050905090810190601f16801561055d5780820380516001836020036101000a031916815260200191505b5087810385528c818151815260200191508051906020019080838360005b8381101561059657808201518184015260208101905061057b565b50505050905090810190601f1680156105c35780820380516001836020036101000a031916815260200191505b5087810384528b818151815260200191508051906020019080838360005b838110156105fc5780820151818401526020810190506105e1565b50505050905090810190601f1680156106295780820380516001836020036101000a031916815260200191505b5087810383528a818151815260200191508051906020019080838360005b83811015610662578082015181840152602081019050610647565b50505050905090810190601f16801561068f5780820380516001836020036101000a031916815260200191505b50878103825289818151815260200191508051906020019080838360005b838110156106c85780820151818401526020810190506106ad565b50505050905090810190601f1680156106f55780820380516001836020036101000a031916815260200191505b509e50505050505050505050505050505060405180910390f35b60005481565b600081511161078c576040517f08c379a000000000000000000000000000000000000000000000000000000000815260040180806020018281038252600b8152602001807f6d617369206b6f736f6e6700000000000000000000000000000000000000000081525060200191505060405180910390fd5b600080815480929190600101919050555060405180610100016040528060005481526020018781526020018681526020018581526020018481526020018381526020018281526020013373ffffffffffffffffffffffffffffffffffffffff168152506001600080548152602001908152602001600020600082015181600001556020820151816001019080519060200190610829929190611000565b506040820151816002019080519060200190610846929190611000565b506060820151816003019080519060200190610863929190611000565b506080820151816004019080519060200190610880929190611000565b5060a082015181600501908051906020019061089d929190611000565b5060c08201518160060190805190602001906108ba929190611000565b5060e08201518160070160006101000a81548173ffffffffffffffffffffffffffffffffffffffff021916908373ffffffffffffffffffffffffffffffffffffffff1602179055509050507fb9cd06f22f6789bded2a83142d052b5097c4f73c4625a6ac0aa5cb4e1b621fef60005487878787878733604051808981526020018060200180602001806020018060200180602001806020018873ffffffffffffffffffffffffffffffffffffffff1673ffffffffffffffffffffffffffffffffffffffff16815260200187810387528e818151815260200191508051906020019080838360005b838110156109bc5780820151818401526020810190506109a1565b50505050905090810190601f1680156109e95780820380516001836020036101000a031916815260200191505b5087810386528d818151815260200191508051906020019080838360005b83811015610a22578082015181840152602081019050610a07565b50505050905090810190601f168015610a4f5780820380516001836020036101000a031916815260200191505b5087810385528c818151815260200191508051906020019080838360005b83811015610a88578082015181840152602081019050610a6d565b50505050905090810190601f168015610ab55780820380516001836020036101000a031916815260200191505b5087810384528b818151815260200191508051906020019080838360005b83811015610aee578082015181840152602081019050610ad3565b50505050905090810190601f168015610b1b5780820380516001836020036101000a031916815260200191505b5087810383528a818151815260200191508051906020019080838360005b83811015610b54578082015181840152602081019050610b39565b50505050905090810190601f168015610b815780820380516001836020036101000a031916815260200191505b50878103825289818151815260200191508051906020019080838360005b83811015610bba578082015181840152602081019050610b9f565b50505050905090810190601f168015610be75780820380516001836020036101000a031916815260200191505b509e50505050505050505050505050505060405180910390a1505050505050565b6001602052806000526040600020600091509050806000015490806001018054600181600116156101000203166002900480601f016020809104026020016040519081016040528092919081815260200182805460018160011615610100020316600290048015610cba5780601f10610c8f57610100808354040283529160200191610cba565b820191906000526020600020905b815481529060010190602001808311610c9d57829003601f168201915b505050505090806002018054600181600116156101000203166002900480601f016020809104026020016040519081016040528092919081815260200182805460018160011615610100020316600290048015610d585780601f10610d2d57610100808354040283529160200191610d58565b820191906000526020600020905b815481529060010190602001808311610d3b57829003601f168201915b505050505090806003018054600181600116156101000203166002900480601f016020809104026020016040519081016040528092919081815260200182805460018160011615610100020316600290048015610df65780601f10610dcb57610100808354040283529160200191610df6565b820191906000526020600020905b815481529060010190602001808311610dd957829003601f168201915b505050505090806004018054600181600116156101000203166002900480601f016020809104026020016040519081016040528092919081815260200182805460018160011615610100020316600290048015610e945780601f10610e6957610100808354040283529160200191610e94565b820191906000526020600020905b815481529060010190602001808311610e7757829003601f168201915b505050505090806005018054600181600116156101000203166002900480601f016020809104026020016040519081016040528092919081815260200182805460018160011615610100020316600290048015610f325780601f10610f0757610100808354040283529160200191610f32565b820191906000526020600020905b815481529060010190602001808311610f1557829003601f168201915b505050505090806006018054600181600116156101000203166002900480601f016020809104026020016040519081016040528092919081815260200182805460018160011615610100020316600290048015610fd05780601f10610fa557610100808354040283529160200191610fd0565b820191906000526020600020905b815481529060010190602001808311610fb357829003601f168201915b5050505050908060070160009054906101000a900473ffffffffffffffffffffffffffffffffffffffff16905088565b828054600181600116156101000203166002900490600052602060002090601f016020900481019282601f1061104157805160ff191683800117855561106f565b8280016001018555821561106f579182015b8281111561106e578251825591602001919060010190611053565b5b50905061107c9190611080565b5090565b6110a291905b8082111561109e576000816000905550600101611086565b5090565b9056fea265627a7a72315820a43c81819c67d6a96b5c92afe2ef232a1ab9b20f88b05f28d65b60cca23b11d864736f6c63430005100032",
  "source": "pragma solidity >= 0.5.0;\n\ncontract Hospital {\n    uint public index = 0;\n    mapping(uint => data)  public Datas;\n\n    struct data{\n        uint id;\n        string nama;\n        string umur;\n        string email;\n        string nik;\n        string alamat;\n        string penyakit;\n        address owner;\n    }\n\n    event InsertData(uint id, string nama, string umur, string email, string nik, string alamat, string penyakit, address owner);\n\n\n    function addData(string memory _nama, string memory _umur, string memory _email, string memory _nik, string memory _alamat,  string memory _penyakit) public {\n        require(bytes(_penyakit).length > 0, \"masi kosong\");\n        index++;\n        Datas[index] = data(index,_nama,_umur,_email,_nik,_alamat,_penyakit,msg.sender);\n        emit InsertData(index, _nama, _umur, _email,_nik,_alamat, _penyakit, msg.sender);\n    }\n\n\n\n}",
  "sourcePath": "/home/forceki/healty-v2/contracts/Hospital.sol",
  "compiler": {
    "name": "solc",
    "version": "0.5.16+commit.9c3226ce.Emscripten.clang"
  },
  "schemaVersion": "3.4.3",
  "updatedAt": "2021-12-13T07:20:37.774Z",
  "networkType": "ethereum",
  "devdoc": {
    "methods": {}
  },
  "userdoc": {
    "methods": {}
  }
}